:10084A00758F01E4F5A075A0017FE87E037D007C29
:10085A0000120800E4F5A07FE87E03FDFC12080000
:02086A0080E428
:100800008F0B8E0A8D098C08E4FFFEFDFCAB0BAA52
:100810000AA909A808D312086C402E758901758CA5
:10082000EC758A77C28DD28C308DFDC28CC28DE57D
:100830000B24FFF50BE50A34FFF50AE50934FFF553
:0A08400009E50834FFF50880BF2227
:0300000002087D76
:0C087D00787FE4F6D8FD75810B02084A74
:10086C00EB9FF5F0EA9E42F0E99D42F0E89C45F0E2
:01087C002259
:00000001FF
