:03090C00010C14C7
:1008D900758F01E4F5A075A0017FE87E037D007C9A
:1008E9000012088CE4F5A07FE87E03FDFC12088C59
:0208F90080E499
:10088C008F0B8E0A8D098C08758920758D05E4FFF8
:10089C00FEFDFCAB0BAA0AA909A808D31208FB4061
:1008AC0029750C14C28FD28E308FFDC28FD50CF4EB
:1008BC00E50B24FFF50BE50A34FFF50AE50934FFD7
:0D08CC00F509E50834FFF50880C4C28E224E
:03000000020800F3
:0C080000787FE4F6D8FD75810C020847F3
:1008FB00EB9FF5F0EA9E42F0E99D42F0E89C45F053
:01090B0022C9
:10080C000208D9E493A3F8E493A34003F68001F221
:10081C0008DFF48029E493A3F85407240CC8C333ED
:10082C00C4540F4420C8834004F456800146F6DFBC
:10083C00E4800B010204081020408090090CE47E37
:10084C00019360BCA3FF543F30E509541FFEE493B1
:10085C00A360010ECF54C025E060A840B8E493A378
:10086C00FAE493A3F8E493A3C8C582C8CAC583CAA3
:10087C00F0A3C8C582C8CAC583CADFE9DEE780BE5B
:01090F0000E7
:00000001FF
