:10080000758F0153890F438920759850C2ACC2ABD4
:1008100053877F758DF0758BF0D28ED299E4F5A059
:1008200012089C8F0CE50CB44104D2A080F2E50CB8
:10083000B44204C2A080E9E50CB44304D2A180E034
:09084000E50CB444DBC2A180D731
:100849008F0B8E0A8D098C08E4FFFEFDFCAB0BAA09
:100859000AA909A808D312087F401AE50B24FFF555
:100869000BE50A34FFF50AE50934FFF509E5083413
:06087900FFF50880D32208
:0300000002089063
:0C089000787FE4F6D8FD75810C020800AA
:10087F00EB9FF5F0EA9E42F0E99D42F0E89C45F0CF
:01088F002246
:0A089C003098FDAF99C2987E00224B
:00000001FF
