:10083600758F01E4F5A0750800750980C3E5099474
:1008460001E508940040EF8509A07F887E137D00AE
:100856007C00120800E508C313F508E50913F5093D
:0208660080DA36
:100800008F0D8E0C8D0B8C0AE4FFFEFDFCAB0DAA48
:100810000CA90BA80AD3120868401AE50D24FFF5AD
:100820000DE50C34FFF50CE50B34FFF50BE50A3450
:06083000FFF50A80D3224F
:030000000208797A
:0C087900787FE4F6D8FD75810D0208368A
:10086800EB9FF5F0EA9E42F0E99D42F0E89C45F0E6
:01087800225D
:00000001FF
