:04099500020E271017
:10080000758F01E4F5A0308008850E10850F1180EA
:100810007130810DE50F25E0F511E50E33F51080FF
:100820006130820AAE0EAF0F7C007D0380373083CB
:100830000FAE0EE50F7802C333CE33CED8F9803E2B
:1008400030840AAE0EAF0F7C007D05801830850A1B
:10085000AE0EAF0F7C007D06800B308611AE0EAF62
:100860000F7C007D071209728E108F118014308763
:1008700011AE0EE50F7803C333CE33CED8F9F511A0
:100880008E10750800750901D3E5099480E5089478
:100890000040030208068509A0AE10AF11E4FCFD7C
:1008A00012093CE50925E0F509E50833F50880D88B
:10093C008F0D8E0C8D0B8C0AE4FFFEFDFCAB0DAA0B
:10094C000CA90BA80AD3120984401AE50D24FFF553
:10095C000DE50C34FFF50CE50B34FFF50BE50A3413
:06096C00FFF50A80D32212
:030000000208B043
:0C08B000787FE4F6D8FD7581110208F78E
:10097200EF8DF0A4A8F0CF8CF0A428CE8DF0A42E99
:02098200FE2253
:10098400EB9FF5F0EA9E42F0E99D42F0E89C45F0C9
:010994002240
:1008BC00020800E493A3F8E493A34003F68001F24A
:1008CC0008DFF48029E493A3F85407240CC8C3333D
:1008DC00C4540F4420C8834004F456800146F6DF0C
:1008EC00E4800B0102040810204080900995E47EFE
:1008FC00019360BCA3FF543F30E509541FFEE49301
:10090C00A360010ECF54C025E060A840B8E493A3C7
:10091C00FAE493A3F8E493A3C8C582C8CAC583CAF2
:10092C00F0A3C8C582C8CAC583CADFE9DEE780BEAA
:01099900005D
:00000001FF
