:10080000758F01E4F5A020B221750800750901D3A8
:10081000E5099480E5089400501012084EE509257A
:10082000E0F509E50833F50880E520B3D97508003F
:10083000750980C3E5099401E508940040C81208D1
:0E0840004EE508C313F508E50913F50980E538
:0B084E008509A07F507EC37D007C0068
:100859008F0D8E0C8D0B8C0AE4FFFEFDFCAB0DAAEF
:100869000CA90BA80AD312088F401AE50D24FFF52D
:100879000DE50C34FFF50CE50B34FFF50BE50A34F7
:06088900FFF50A80D322F6
:030000000208A053
:0C08A000787FE4F6D8FD75810D02080099
:10088F00EB9FF5F0EA9E42F0E99D42F0E89C45F0BF
:01089F002236
:00000001FF
