:10084700758F01E4F5A0758961758D9BC28FD28E76
:10085700308FFDC28FC28E75A0017FE87E037D00B9
:100867007C00120800E4F5A07FE87E03FDFC120877
:030877000080D32B
:100800008F0B8E0A8D098C08E4FFFEFDFCAB0BAA52
:100810000AA909A808D312087A402B758CEC758AAE
:1008200077C28DD28C308DFDC28DC28CE50B24FF3A
:10083000F50BE50A34FFF50AE50934FFF509E5088B
:0708400034FFF50880C2221D
:0300000002088B68
:0C088B00787FE4F6D8FD75810B02084769
:10087A00EB9FF5F0EA9E42F0E99D42F0E89C45F0D4
:01088A00224B
:00000001FF
