:10083600758F01E4F5A0758960758D9BC28FD28E88
:10084600308FFDC28FC28E75A0017F107E277D007E
:100856007C00120800E4F5A07F107E27FDFC12083C
:030866000080D33C
:100800008F0B8E0A8D098C08E4FFFEFDFCAB0BAA52
:100810000AA909A808D3120869401AE50B24FFF5B4
:100820000BE50A34FFF50AE50934FFF509E508345C
:06083000FFF50880D32251
:0300000002087A79
:0C087A00787FE4F6D8FD75810B0208368B
:10086900EB9FF5F0EA9E42F0E99D42F0E89C45F0E5
:01087900225C
:00000001FF
