:10080000758F0153890F438920759850C2ACC2ABD4
:1008100053877F758DF0758BF0D28ED299E4F5A059
:100820001209238F0EE50EB441047F028007E50E06
:10083000B442097F047E001208BA80E4E50EB44396
:10084000047F038007E50EB444097F067E0012088A
:10085000E280CDE50EB446C81208B61208DE1208D2
:10086000B61208DE1208B61208DE1208B61208DE4A
:080870001208B61208DE80A890
:080878007FA87E617D007C0079
:100880008F0D8E0C8D0B8C0AE4FFFEFDFCAB0DAAC8
:100890000CA90BA80AD3120906401AE50D24FFF58E
:1008A0000DE50C34FFF50CE50B34FFF50BE50A34D0
:0608B000FFF50A80D322CF
:0408B6007F017E0040
:1008BA008E088F09D3E5099400E50894004014D204
:1008CA00A0120878C2A0120878E509150970E51582
:0408DA000880E1228F
:0408DE007F017E0018
:1008E2008E088F09D3E5099400E50894004014D2DC
:1008F200A1120878C2A1120878E509150970E51558
:040902000880E12266
:03000000020917DB
:0C091700787FE4F6D8FD75810E02080020
:10090600EB9FF5F0EA9E42F0E99D42F0E89C45F047
:0109160022BE
:0A0923003098FDAF99C2987E0022C3
:00000001FF
