:10083C00758F01E4F5A0758905758CFF758A9BC2CF
:10084C008DD28C308DFDC28DC28C75A0017C0012B6
:0B085C000800E4F5A0FC12080080DB9F
:060800007F207EA17D07B0
:100806008F0B8E0A8D098C08E4FFFEFDFCAB0BAA4C
:100816000AA909A808D3120867401AE50B24FFF5B0
:100826000BE50A34FFF50AE50934FFF509E5083456
:06083600FFF50880D3224B
:030000000208787B
:0C087800787FE4F6D8FD75810B02083C87
:10086700EB9FF5F0EA9E42F0E99D42F0E89C45F0E7
:01087700225E
:00000001FF
