:10083E00758F01E4F5A075A00112080075A00212D3
:10084E00080075A00412080075A00812080075A013
:10085E001012080075A02012080075A040120800A2
:08086E0075A08012080080CE85
:080800007F507EC37D007C00E7
:100808008F0D8E0C8D0B8C0AE4FFFEFDFCAB0DAA40
:100818000CA90BA80AD3120876401AE50D24FFF597
:100828000DE50C34FFF50CE50B34FFF50BE50A3448
:06083800FFF50A80D32247
:030000000208876C
:0C088700787FE4F6D8FD75810D02083E74
:10087600EB9FF5F0EA9E42F0E99D42F0E89C45F0D8
:01088600224F
:00000001FF
