:040981000210271029
:10088C00758F01E4F5A02080033081217508007577
:10089C000901D3E5099480E508940050E91208FF9A
:1008AC00E50925E0F509E50833F50880E520820324
:1008BC00308321750800750980C3E5099401E508AA
:1008CC00940040C21208FFE508C313F508E50913AC
:1008DC00F50980E52084033085097F027E0012092A
:1008EC004080A320860330879D7F047E0012094040
:0308FC000208925D
:0B08FF008509A07F507EC37D007C00B7
:10090A008F0F8E0E8D0D8C0CE4FFFEFDFCAB0FAA33
:10091A000EA90DA80CD3120970401AE50F24FFF591
:10092A000FE50E34FFF50EE50D34FFF50DE50C3439
:06093A00FFF50C80D32242
:100940008E0A8F0BD3E50B9400E50A9400402075C6
:10095000A0FF7FA87E61120906E4F5A07FA87E6152
:10096000FDFC12090AE50B150B70D9150A80D5227A
:03000000020800F3
:0C080000787FE4F6D8FD758113020847EC
:10097000EB9FF5F0EA9E42F0E99D42F0E89C45F0DD
:010980002254
:10080C0002088CE493A3F8E493A34003F68001F26E
:10081C0008DFF48029E493A3F85407240CC8C333ED
:10082C00C4540F4420C8834004F456800146F6DFBC
:10083C00E4800B0102040810204080900981E47EC2
:10084C00019360BCA3FF543F30E509541FFEE493B1
:10085C00A360010ECF54C025E060A840B8E493A378
:10086C00FAE493A3F8E493A3C8C582C8CAC583CAA3
:10087C00F0A3C8C582C8CAC583CADFE9DEE780BE5B
:010985000071
:00000001FF
